{
  "contractName": "FundMe",
  "abi": [
    {
      "inputs": [],
      "stateMutability": "nonpayable",
      "type": "constructor"
    },
    {
      "inputs": [],
      "name": "NotOwner",
      "type": "error"
    },
    {
      "stateMutability": "payable",
      "type": "fallback"
    },
    {
      "inputs": [],
      "name": "MINIMUM_USD",
      "outputs": [
        {
          "internalType": "uint256",
          "name": "",
          "type": "uint256"
        }
      ],
      "stateMutability": "view",
      "type": "function"
    },
    {
      "inputs": [
        {
          "internalType": "address",
          "name": "",
          "type": "address"
        }
      ],
      "name": "addressToAmountFunded",
      "outputs": [
        {
          "internalType": "uint256",
          "name": "",
          "type": "uint256"
        }
      ],
      "stateMutability": "view",
      "type": "function"
    },
    {
      "inputs": [
        {
          "internalType": "uint256",
          "name": "",
          "type": "uint256"
        }
      ],
      "name": "funders",
      "outputs": [
        {
          "internalType": "address",
          "name": "",
          "type": "address"
        }
      ],
      "stateMutability": "view",
      "type": "function"
    },
    {
      "inputs": [],
      "name": "i_owner",
      "outputs": [
        {
          "internalType": "address",
          "name": "",
          "type": "address"
        }
      ],
      "stateMutability": "view",
      "type": "function"
    },
    {
      "stateMutability": "payable",
      "type": "receive"
    },
    {
      "inputs": [],
      "name": "fund",
      "outputs": [],
      "stateMutability": "payable",
      "type": "function"
    },
    {
      "inputs": [],
      "name": "getVersion",
      "outputs": [
        {
          "internalType": "uint256",
          "name": "",
          "type": "uint256"
        }
      ],
      "stateMutability": "view",
      "type": "function"
    },
    {
      "inputs": [],
      "name": "withdraw",
      "outputs": [],
      "stateMutability": "nonpayable",
      "type": "function"
    }
  ],
  "bytecode": "0x608060405234801561001057600080fd5b5033600260006101000a81548173ffffffffffffffffffffffffffffffffffffffff021916908373ffffffffffffffffffffffffffffffffffffffff160217905550610d9e806100616000396000f3fe6080604052600436106100745760003560e01c80636b69a5921161004e5780636b69a5921461010c578063b60d428814610137578063dba6335f14610141578063dc0d3dff1461016c57610083565b80630d8e6e2c1461008d5780633ccfd60b146100b85780633e47d6f3146100cf57610083565b36610083576100816101a9565b005b61008b6101a9565b005b34801561009957600080fd5b506100a26102b6565b6040516100af91906107b3565b60405180910390f35b3480156100c457600080fd5b506100cd610345565b005b3480156100db57600080fd5b506100f660048036038101906100f19190610831565b610587565b60405161010391906107b3565b60405180910390f35b34801561011857600080fd5b5061012161059f565b60405161012e91906107b3565b60405180910390f35b61013f6101a9565b005b34801561014d57600080fd5b506101566105ab565b604051610163919061086d565b60405180910390f35b34801561017857600080fd5b50610193600480360381019061018e91906108b4565b6105d1565b6040516101a0919061086d565b60405180910390f35b674563918244f400006101bb34610610565b10156101fc576040517f08c379a00000000000000000000000000000000000000000000000000000000081526004016101f39061093e565b60405180910390fd5b346000803373ffffffffffffffffffffffffffffffffffffffff1673ffffffffffffffffffffffffffffffffffffffff168152602001908152602001600020600082825461024a919061098d565b925050819055506001339080600181540180825580915050600190039060005260206000200160009091909190916101000a81548173ffffffffffffffffffffffffffffffffffffffff021916908373ffffffffffffffffffffffffffffffffffffffff160217905550565b60008073694aa1769357215de4fac081bf1f309adc32530690508073ffffffffffffffffffffffffffffffffffffffff166354fd4d506040518163ffffffff1660e01b8152600401602060405180830381865afa15801561031b573d6000803e3d6000fd5b505050506040513d601f19601f8201168201806040525081019061033f91906109d6565b91505090565b600260009054906101000a900473ffffffffffffffffffffffffffffffffffffffff1673ffffffffffffffffffffffffffffffffffffffff163373ffffffffffffffffffffffffffffffffffffffff16146103cc576040517f30cd747100000000000000000000000000000000000000000000000000000000815260040160405180910390fd5b60005b600180549050811015610477576000600182815481106103f2576103f1610a03565b5b9060005260206000200160009054906101000a900473ffffffffffffffffffffffffffffffffffffffff16905060008060008373ffffffffffffffffffffffffffffffffffffffff1673ffffffffffffffffffffffffffffffffffffffff1681526020019081526020016000208190555050808061046f90610a32565b9150506103cf565b50600067ffffffffffffffff81111561049357610492610a7a565b5b6040519080825280602002602001820160405280156104c15781602001602082028036833780820191505090505b50600190805190602001906104d79291906106f3565b5060003373ffffffffffffffffffffffffffffffffffffffff16476040516104fe90610ada565b60006040518083038185875af1925050503d806000811461053b576040519150601f19603f3d011682016040523d82523d6000602084013e610540565b606091505b5050905080610584576040517f08c379a000000000000000000000000000000000000000000000000000000000815260040161057b90610b3b565b60405180910390fd5b50565b60006020528060005260406000206000915090505481565b674563918244f4000081565b600260009054906101000a900473ffffffffffffffffffffffffffffffffffffffff1681565b600181815481106105e157600080fd5b906000526020600020016000915054906101000a900473ffffffffffffffffffffffffffffffffffffffff1681565b60008061061b61064a565b90506000670de0b6b3a764000084836106349190610b5b565b61063e9190610bcc565b90508092505050919050565b60008073694aa1769357215de4fac081bf1f309adc325306905060008173ffffffffffffffffffffffffffffffffffffffff1663feaf968c6040518163ffffffff1660e01b815260040160a060405180830381865afa1580156106b1573d6000803e3d6000fd5b505050506040513d601f19601f820116820180604052508101906106d59190610c75565b5050509150506402540be400816106ec9190610cf0565b9250505090565b82805482825590600052602060002090810192821561076c579160200282015b8281111561076b5782518260006101000a81548173ffffffffffffffffffffffffffffffffffffffff021916908373ffffffffffffffffffffffffffffffffffffffff16021790555091602001919060010190610713565b5b509050610779919061077d565b5090565b5b8082111561079657600081600090555060010161077e565b5090565b6000819050919050565b6107ad8161079a565b82525050565b60006020820190506107c860008301846107a4565b92915050565b600080fd5b600073ffffffffffffffffffffffffffffffffffffffff82169050919050565b60006107fe826107d3565b9050919050565b61080e816107f3565b811461081957600080fd5b50565b60008135905061082b81610805565b92915050565b600060208284031215610847576108466107ce565b5b60006108558482850161081c565b91505092915050565b610867816107f3565b82525050565b6000602082019050610882600083018461085e565b92915050565b6108918161079a565b811461089c57600080fd5b50565b6000813590506108ae81610888565b92915050565b6000602082840312156108ca576108c96107ce565b5b60006108d88482850161089f565b91505092915050565b600082825260208201905092915050565b7f596f75206e65656420746f207370656e64206d6f726520455448210000000000600082015250565b6000610928601b836108e1565b9150610933826108f2565b602082019050919050565b600060208201905081810360008301526109578161091b565b9050919050565b7f4e487b7100000000000000000000000000000000000000000000000000000000600052601160045260246000fd5b60006109988261079a565b91506109a38361079a565b92508282019050808211156109bb576109ba61095e565b5b92915050565b6000815190506109d081610888565b92915050565b6000602082840312156109ec576109eb6107ce565b5b60006109fa848285016109c1565b91505092915050565b7f4e487b7100000000000000000000000000000000000000000000000000000000600052603260045260246000fd5b6000610a3d8261079a565b91507fffffffffffffffffffffffffffffffffffffffffffffffffffffffffffffffff8203610a6f57610a6e61095e565b5b600182019050919050565b7f4e487b7100000000000000000000000000000000000000000000000000000000600052604160045260246000fd5b600081905092915050565b50565b6000610ac4600083610aa9565b9150610acf82610ab4565b600082019050919050565b6000610ae582610ab7565b9150819050919050565b7f43616c6c206661696c6564000000000000000000000000000000000000000000600082015250565b6000610b25600b836108e1565b9150610b3082610aef565b602082019050919050565b60006020820190508181036000830152610b5481610b18565b9050919050565b6000610b668261079a565b9150610b718361079a565b9250828202610b7f8161079a565b91508282048414831517610b9657610b9561095e565b5b5092915050565b7f4e487b7100000000000000000000000000000000000000000000000000000000600052601260045260246000fd5b6000610bd78261079a565b9150610be28361079a565b925082610bf257610bf1610b9d565b5b828204905092915050565b600069ffffffffffffffffffff82169050919050565b610c1c81610bfd565b8114610c2757600080fd5b50565b600081519050610c3981610c13565b92915050565b6000819050919050565b610c5281610c3f565b8114610c5d57600080fd5b50565b600081519050610c6f81610c49565b92915050565b600080600080600060a08688031215610c9157610c906107ce565b5b6000610c9f88828901610c2a565b9550506020610cb088828901610c60565b9450506040610cc1888289016109c1565b9350506060610cd2888289016109c1565b9250506080610ce388828901610c2a565b9150509295509295909350565b6000610cfb82610c3f565b9150610d0683610c3f565b9250828202610d1481610c3f565b91507f80000000000000000000000000000000000000000000000000000000000000008414600084121615610d4c57610d4b61095e565b5b8282058414831517610d6157610d6061095e565b5b509291505056fea26469706673582212207a9f276519c4020abf82009faad66556a97dff33ffd94da75628a4678039d82c64736f6c63430008120033",
  "immutableReferences": {},
  "source": "// SPDX-License-Identifier: MIT\r\npragma solidity ^0.8.18;\r\n\r\n// Note: The AggregatorV3Interface might be at a different location than what was in the video!\r\nimport {AggregatorV3Interface} from \"@chainlink/contracts/src/v0.8/interfaces/AggregatorV3Interface.sol\";\r\nimport {PriceConverter} from \"./PriceConverter.sol\";\r\n\r\nerror NotOwner();\r\n\r\ncontract FundMe {\r\n    using PriceConverter for uint256;\r\n\r\n    mapping(address => uint256) public addressToAmountFunded;\r\n    address[] public funders;\r\n\r\n    // Could we make this constant?  /* hint: no! We should make it immutable! */\r\n    address public /* immutable */ i_owner;\r\n    uint256 public constant MINIMUM_USD = 5 * 10 ** 18;\r\n\r\n    constructor() {\r\n        i_owner = msg.sender;\r\n    }\r\n\r\n    function fund() public payable {\r\n        require(msg.value.getConversionRate() >= MINIMUM_USD, \"You need to spend more ETH!\");\r\n        // require(PriceConverter.getConversionRate(msg.value) >= MINIMUM_USD, \"You need to spend more ETH!\");\r\n        addressToAmountFunded[msg.sender] += msg.value;\r\n        funders.push(msg.sender);\r\n    }\r\n\r\n    function getVersion() public view returns (uint256) {\r\n        AggregatorV3Interface priceFeed = AggregatorV3Interface(0x694AA1769357215DE4FAC081bf1f309aDC325306);\r\n        return priceFeed.version();\r\n    }\r\n\r\n    modifier onlyOwner() {\r\n        // require(msg.sender == owner);\r\n        if (msg.sender != i_owner) revert NotOwner();\r\n        _;\r\n    }\r\n\r\n    function withdraw() public onlyOwner {\r\n        for (uint256 funderIndex = 0; funderIndex < funders.length; funderIndex++) {\r\n            address funder = funders[funderIndex];\r\n            addressToAmountFunded[funder] = 0;\r\n        }\r\n        funders = new address[](0);\r\n        // // transfer\r\n        // payable(msg.sender).transfer(address(this).balance);\r\n\r\n        // // send\r\n        // bool sendSuccess = payable(msg.sender).send(address(this).balance);\r\n        // require(sendSuccess, \"Send failed\");\r\n\r\n        // call\r\n        (bool callSuccess,) = payable(msg.sender).call{value: address(this).balance}(\"\");\r\n        require(callSuccess, \"Call failed\");\r\n    }\r\n    // Explainer from: https://solidity-by-example.org/fallback/\r\n    // Ether is sent to contract\r\n    //      is msg.data empty?\r\n    //          /   \\\r\n    //         yes  no\r\n    //         /     \\\r\n    //    receive()?  fallback()\r\n    //     /   \\\r\n    //   yes   no\r\n    //  /        \\\r\n    //receive()  fallback()\r\n\r\n    fallback() external payable {\r\n        fund();\r\n    }\r\n\r\n    receive() external payable {\r\n        fund();\r\n    }\r\n}\r\n\r\n// Concepts we didn't cover yet (will cover in later sections)\r\n// 1. Enum\r\n// 2. Events\r\n// 3. Try / Catch\r\n// 4. Function Selector\r\n// 5. abi.encode / decode\r\n// 6. Hash with keccak256\r\n// 7. Yul / Assembly",
  "sourcePath": "C:\\Users\\sj941\\OneDrive\\Desktop\\truffle\\contracts\\FundMe.sol",
  "compiler": {
    "name": "solc",
    "version": "0.8.18+commit.87f61d96.Emscripten.clang"
  },
  "schemaVersion": "3.4.16",
  "updatedAt": "2024-08-08T18:18:56.826Z",
  "devdoc": {
    "kind": "dev",
    "methods": {},
    "version": 1
  },
  "userdoc": {
    "kind": "user",
    "methods": {},
    "version": 1
  }
}